:020000040800F2
:10000000302C012061020008794C000831360008CC
:10001000E54B0008350E00085D5A0008000000009E
:10002000000000000000000000000000A101000826
:10003000DD15000800000000FD010008A9510008BE
:100040007B0200087B0200087B0200087B0200089C
:100050007B0200087B0200087B0200087B0200088C
:100060007B0200087B0200087B020008ED130008F9
:10007000F91300087B020008051400087B02000841
:10008000111400081D1400087B0200087B02000800
:100090007B0200087B0200087B0200087B0200084C
:1000A0007B0200087B0200087B0200087B0200083C
:1000B000655200087B020008715200087B020008AC
:1000C0007B0200087B0200087B0200087B0200081C
:1000D0007B0200084D590008A9590008F55900088D
:1000E0007B0200087B0200087B0200087B020008FC
:1000F0007B0200087B0200087B0200087B020008EC
:100100007B0200087B0200087B020008714D00089A
:100110007B020008915400087B0200087B02000863
:100120007B0200087B020008291400087B020008FB
:100130007B0200087B0200087B0200087B020008AB
:100140007B0200087B0200087B0200087B0200089B
:100150007B0200087B020008351400087B020008BF
:100160007B0200087B0200087B0200087B0200087B
:100170007B0200087B0200087B02000800000000F0
:100180007B0200087B020008DFF810D000F072FC50
:10019000004800477D8B0008AFF30080302C012021
:1001A0002C4B19680868B0E8F04F80F30988BFF35A
:1001B0006F8F4FF0000080F311887047000000003F
:1001C00008480068006880F308884FF0000080F35A
:1001D000148862B661B6BFF34F8FBFF36F8F00DF35
:1001E00000BF00BF08ED00E0DFF80C00016841F43B
:1001F00070010160704700BF88ED00E0EFF30980F7
:10020000BFF36F8F134B1A681EF0100F08BF20ED5D
:10021000108A20E9F04F106009B44FF0500080F3CD
:100220001188BFF34F8FBFF36F8F0BF0CBFD4FF0F3
:10023000000080F3118809BC19680868B0E8F04F25
:100240001EF0100F08BFB0EC108A80F30988BFF3CE
:100250006F8F704774000020EFF305807047000037
:100260000648804706480047FEE7FEE7FEE7FEE750
:10027000FEE7FEE7FEE7FEE7FEE7FEE75552000871
:10028000890100082DE9F05F0546002092469B4653
:1002900088460646814640241BE02846414647469C
:1002A000224600F092FA53465A46C01A914110D3A2
:1002B00011461846224600F079FA2D1A67EB01081C
:1002C0004F4622460120002100F070FA17EB00098A
:1002D0004E41201EA4F10104DFDC484631462A4687
:1002E0004346BDE8F09FA0F14101192900D8203014
:1002F000704740EA01039B0703D009E008C9121FB9
:1003000008C0042AFAD203E011F8013B00F8013BCF
:10031000521EF9D27047D2B201E000F8012B491EFB
:10032000FBD270470022F6E710B513460A46044692
:100330001946FFF7F0FF204610BD421E12F8013F9C
:10034000002BFBD111F8013B02F8013B002BF9D146
:10035000704730B505462A460B4612F8010B13F8D4
:10036000014B08B1A042F8D01CB1002802D06D1C8E
:10037000F1E7284630BD10B5044604E00B7800F8DC
:10038000013B03B1491C521EF8D2204610BDCAB22F
:10039000401E10F8011F8A4202D00029F9D1002026
:1003A0007047421C10F8011B0029FBD1801A7047CE
:1003B00010B5002200E0521C835C8C5CA34201D18A
:1003C000002BF8D1D8B2E1B2401A10BD034611F8A3
:1003D000012B00F8012B002AF9D11846704730B5DF
:1003E00005460020034600E05B1C934205D2EC5C0E
:1003F000C85C201A01D1002CF6D130BD70B50F4D6C
:1004000000B92868002412E00A4602E09E4203D0A8
:10041000521C1378002BF9D1DAB2224305D02BB14C
:1004200024B1002100F8011B04E00446401C0678BA
:10043000002EE9D12860204670BD0000E0060020B3
:100440002DE9F0410546002090460E46044600E0A6
:10045000641C44450BD2285DFFF745FF0746305D1D
:10046000FFF741FF381A02D1295D0029F0D1BDE81C
:10047000F08170B5064605F041FE046805460A2283
:100480000021304600F0C3F92C6070BD2DE9FE4F0D
:10049000804681EA0300C00F0C46009021F0004125
:1004A00023F00045B8EB0200A94105D240462146A1
:1004B00090461C460B46024623F00040104347D0AE
:1004C000270DC7F30A00C3F30A510290401A0190A6
:1004D00040286BDAC3F3130040F4801B0098924667
:1004E00020B10023D2EB030A63EB0B0B01985946B2
:1004F000C0F14002504600F059F906460D465046FC
:100500005946019A00F071F910EB0800614100248E
:1005100087EA115284EAE7731A4340D0009A62B323
:10052000019A012A4FEA075215DC001B61EB020118
:100530004FF0004202EA0752CDE90042001C41F5AB
:10054000801132462B4600F0A9F903B0BDE8F08FC8
:1005500040462146F9E7001B61EB0201001C41F512
:10056000801300185B412018A2F5001747EB030128
:1005700040EAD570B6196D4111E06D084FEA3606B4
:1005800045EAC0754FEA0752001B61EB0201001CEF
:1005900041F5801149084FEA3000001951413246B7
:1005A0002B4603B0BDE8F04F00F069B90098012276
:1005B00040000023D0EB020263EBE0730098214679
:1005C0004FEAE074B8EB000061EB0401E9E783F067
:1005D00000435BE781F0004158E72DE9FE4F81EAD7
:1005E000030404F0004421F0004100944FF0000B9C
:1005F00023F0004350EA01045ED052EA03045BD0CA
:10060000C3F30A54C1F30A552C44A4F2F334019401
:10061000A0FB0254C1F3130141F48011C3F313038F
:1006200043F4801301FB024400FB034E840A970A43
:1006300044EA815447EA8357A4FB076802958D0A70
:1006400005FB07854FEA932C04FB0C542705029DFC
:100650004FEA065847EA1637B5EB08056EEB070C6C
:10066000870E920E47EA811742EA8312A7FB020126
:10067000B6EB0B0164EB00042B0D43EA0C335E1860
:1006800044EB1C50DA465146E7FB0201C5F3130464
:100690004FEA0B3343EA14534FEA0432019C43EA16
:1006A0000603A4F10C040294009CCDE900B400F010
:1006B000F5F803B0BDE8F08F00200146F9E70EB56C
:1006C000C10F80EAE0700844CA07002140F23343BA
:1006D0008DE80E000A460B4600F0E0F803B000BDBE
:1006E00070B5C1F30A5201F000450024C1F31301B3
:1006F00040F2FF3341F480119A4201DA002070BDCC
:1007000040F233439A42A2F2334203DC524200F0F9
:100710005CF800E090402C43F1D0404270BD0000F6
:1007200030B5041E71F1000404DB4FF00044404278
:1007300064EB0101141E73F1000405DB1C464FF04D
:100740000043524263EB04038B4208BF824230BD38
:1007500030B5041E71F1000404DB4FF00044404248
:1007600064EB0101141E73F1000405DB1C464FF01D
:100770000043524263EB0403994208BF904230BDEC
:1007800030B50B46014600202022012409E021FA61
:1007900002F59D4205D303FA02F5491B04FA02F55E
:1007A0002844151EA2F10102F1DC30BD202A04DB31
:1007B000203A00FA02F1002070479140C2F1200374
:1007C00020FA03F3194390407047202A04DB203AB3
:1007D00021FA02F00021704721FA02F3D040C2F161
:1007E00020029140084319467047202A06DBCB17A8
:1007F000203A41FA02F043EAE07306E041FA02F3DC
:10080000D040C2F1200291400843194670472DE9BB
:10081000F04791460F4680460446002614F8015BD7
:100820002DB100F039F90068405DC007F6D12B2DDD
:1008300002D02D2D18D0641E4A463946204600F0BD
:100840002FF927B13968A14201D1C7F8008071059D
:100850004FF002040BD54042002803DD05F04EFCAA
:100860000460A007BDE8F08746F48066E4E700284E
:10087000F8DA05F043FC04606FF00040F2E710B5D1
:10088000141E73F1000408DA401C41F100019218B3
:100890005B411A4301D120F0010010BD2DE9F04D5C
:1008A00092469B4611B1B1FA81F202E0B0FA80F2B1
:1008B00020329046FFF77AFF04460F4640EA0A00CE
:1008C00041EA0B0153465A46084313D0114653EAF6
:1008D000010019D0C8F140025046FFF776FF0546E7
:1008E0000E46504659464246FFF760FF084305D082
:1008F000012004E020463946BDE8F08D0020054384
:1009000046EAE0762C4337430A986305E40AA0EBF5
:1009100008000022FD0A44EA47540A3002D50020AC
:100920000146E9E7010510196941DDE908450019AB
:100930006941BDE8F04DA2E72DE9F04D81EA0304DD
:1009400004F0004B21F0004514464FF0000A23F05C
:10095000004150EA050220D054EA01021DD0C5F33F
:100960000A570246C5F31303C1F31300C1F30A5635
:1009700040F4801543F48013A7EB0608101BD646FD
:1009800008F2FD3873EB050002D308F1010801E01D
:1009900092185B41B8F1000F03DA00200146BDE870
:1009A000F08D00204FF48011064684460EE0171BA0
:1009B00073EB050705D3121B63EB050306434CEAF3
:1009C000010C49084FEA300092185B4150EA0107D8
:1009D000EDD152EA030012D082EA040083EA050155
:1009E000084305D0101BAB4106D20122002306E0CC
:1009F00000224FF0004302E06FF0010253101AEBA7
:100A000006004CEB085110EB0A0041EB0B01BDE86E
:100A1000F04DFFF734BF70B521F0004303430CD015
:100A2000C1F30A550024D5EB040564EB0403D61783
:100A3000AD1AB34102DB0020014670BD201841EB26
:100A4000025170BDC1F30A52C1F3130140F2FF33EA
:100A500041F480119A4202DA00200146704740F2C8
:100A600033439A42A2F2334202DC5242FFF7ADBE58
:100A7000FFF79CBE064C074D06E0E06840F001031E
:100A800094E8070098471034AC42F6D3FFF780FB98
:100A9000A86C0208C86C020800487047B4D100086E
:100AA0002DE9F05F82460078002715468B460AF153
:100AB0000104B946302801D09DB113E014F8010BB0
:100AC0000127782803D0582801D045B10AE00DB19C
:100AD000102D07D10027102514F8010B02E008257E
:100AE00000E00A250026B0460EE005FB080005FBE5
:100AF00006F1012701EB10461FFA80F8B6F5803F9A
:100B000000D3B94614F8010B294600F069F8002813
:100B1000EBDABBF1000F05D00FB1641E00E05446C4
:100B2000CBF80040B9F1000F06D005F0E7FA02213A
:100B30000160C81EBDE8F09F48EA0640FAE72DE9CB
:100B4000F04D00231A461B1A8A4103DB00200146A0
:100B5000BDE8F08DC1F30A52C1F3130141F48015D1
:100B60004FF0000BD10702D100186D41521E002733
:100B7000044640F2FF11384601EB620A3E468046C9
:100B8000024600204FF48011FFF71FFEC219714189
:100B9000BB1846EB0100B4EB030C75EB000C04D35F
:100BA000E41A65EB000517460E46241908F101000A
:100BB0006D4180463428E3DDF91946EB0600091B38
:100BC000A84103D24FF0FF32134601E00022134642
:100BD0001BEB070046EB0A51BDE8F04DFFF74FBE97
:100BE0003A2800D2303820F02002412A01D3A2F165
:100BF0003700884201D34FF0FF30704770B58C1832
:100C000010F8015B15F0070301D110F8013B2A1120
:100C100006D110F8012B03E010F8016B01F8016B0D
:100C20005B1EF9D12B0705D40023521E0DD401F809
:100C3000013BFAE710F8013BCB1A921C03E013F8D2
:100C4000015B01F8015B521EF9D5A142D8D3002007
:100C500070BD0000464910B54A6822F440324A602F
:100C60004A6843681A434A6001684A6822F48072FD
:100C70004A6001684A68036942EA03224A600168DF
:100C80004A6822F040724A6001684A6883681A43E1
:100C90004A6001688A6822F400628A6001688A6892
:100CA000C3681A438A60816A6FF07062D14201683A
:100CB0008A6822F070628A6001688A680CD0836A50
:100CC0001A438A6001688A6822F040528A6001688B
:100CD0008A68C36A1A4301E022F040528A600168C0
:100CE0008A6822F002028A6001688A68037E42EA0A
:100CF00043028A6090F82010002901684A680FD0EA
:100D000042F400624A6001684A6822F460424A6024
:100D100001684A68174C436A04EB43331A4301E005
:100D200022F400624A600168CA6A22F47002CA6250
:100D30000168CA6A838B104C04EB03531A43CA62DE
:100D400001688A6822F400728A6001688A6890F8F3
:100D5000303042EA43228A6001688A6822F4806265
:100D60008A6001688A68406942EA8020886010BD14
:100D70000023014000E0FFFF0000F0FF2DE9F041FB
:100D80001FA005F06FF9244C00263046C4F800601F
:100D900004EB8001401C4E60FF28F9DD002541F284
:100DA000040700BFC5EB051004EB800038441BA20C
:100DB0001BA105F067F96D1C282DF3DB19A218A102
:100DC0001A4805F05FF9194C012080342060AA20F0
:100DD00060600320A06002F039FD04F045FB03F0E1
:100DE0000BFF04F03DFE40F6B8311148C4F84865E9
:100DF000FFF798FA08480AF09DFC0120BDE8F08151
:100E00002D2D2D2D626F61726420696E69742D2DF8
:100E10002D2D2D0D0A000000988B002000000000F1
:100E20002573000056312E302E310000FCA4002026
:100E300038690020FEE7000000B50D4B85B00DF1CC
:100E4000040C0FCB8CE80F0001A9012007F05EFA1B
:100E5000401C00D1FEE769460F2007F057FA401CFE
:100E600005D09DF800000028F5D005B000BDFEE7D4
:100E7000F4C7000838B55AA005F0F4F864A005F0EE
:100E8000F1F864A005F0EEF86D4CE0790090A379DC
:100E9000627921796BA005F0E5F8E07A0090A37AF9
:100EA000627A217A6DA005F0DDF8E07B0090A37BEB
:100EB000627B217B6FA005F0D5F874A005F0D2F815
:100EC00053A005F0CFF87CA005F0CCF82068A4F67C
:100ED000EC14012806D0022806D003287CD0042870
:100EE00005D17BE07FA000E087A005F0BBF867A0FC
:100EF00005F0B8F846A005F0B5F88CA005F0B2F8FA
:100F000094F8FF09009094F8FE3994F8FD2994F8BC
:100F1000FC1991A004F6FC1405F0A4F896A06168F1
:100F200005F0A0F859A005F09DF839A005F09AF851
:100F300097A005F097F8E07A0090A37A627A217A78
:100F40009EA005F08FF8A3A0E16805F08BF8A5A09E
:100F5000216905F087F83A49A6A0243105F082F806
:100F6000A949AAA005F07EF8AD49AEA005F07AF82F
:100F7000B1A0D4F8141305F075F8B449B4A005F085
:100F800071F8B849B8A005F06DF840A005F06AF80E
:100F90001FA005F067F83DA005F064F81CA005F05F
:100FA00061F8B6A005F05EF8BEA0D4F8181505F0FB
:100FB00059F8C1A0D4F81C1505F054F8C3A0D4F812
:100FC000201505F04FF831A005F04CF810A005F001
:100FD00049F8012038BDFFE7C0A086E7C7A084E735
:100FE0002D2D2D2D2D2D2D2D2D2D2D446576696327
:100FF0006520436F6E6669672D2D2D2D2D2D2D2DAE
:101000002D2D2D2D2D2D2D2D2D2D0D0A0000000007
:101010000D0A00002D2D2D2D2D2D2D4C6F63616C93
:10102000204E6574776F726B20436F6E6669672D13
:101030002D2D2D2D2D2D2D2D2D2D0D0A00000000D7
:1010400084A500204C6F63616C2049503A25642EC2
:1010500025642E25642E25640D0A00004C6F636103
:101060006C20534E3A25642E25642E25642E25646B
:101070000D0A00004C6F63616C2047573A25642EBF
:1010800025642E25642E25640D0A00002D2D2D2D9E
:101090002D2D2D2D2D2D2D2D2D2D2D2D2D2D2D2D80
:1010A0002D2D2D2D2D2D2D2D2D2D2D2D2D2D2D2D70
:1010B0002D2D0D0A000000002D2D2D2D2D2D2D2D57
:1010C0002D2D2D2D4E6574776F726B204D6F6465DD
:1010D0002D2D2D2D2D2D2D2D2D2D2D2D2D2D2D0D60
:1010E0000A0000004E6574776F726B204D6F646567
:1010F0003A4554485F4D4F44455F5443505F434C1D
:10110000494E45540D0A00004E6574776F726B208E
:101110004D6F64653A4554485F4D4F44455F5443B5
:10112000505F5356455256450D0A00002D2D2D2D6A
:101130002D2D2D2D2D2D54637020436C69656E74FB
:10114000204D6F64652D2D2D2D2D2D2D2D2D2D2D0B
:101150002D2D0D0A0000000054637020436C69655A
:101160006E74205349503A25642E25642E25642E32
:1011700025640D0A0000000054637020436C69650B
:101180006E742053504F52543A25640D0A000000EB
:101190002D2D2D2D2D2D2D2D2D2D2D455448204D12
:1011A000515454204D6F64652D2D2D2D2D2D2D2D39
:1011B0002D2D2D2D2D2D0D0A000000004D515454C4
:1011C000205349503A25642E25642E25642E25642B
:1011D0000D0A00004D5154542053504F52543A259B
:1011E000640D0A004D515454204C504F52543A252E
:1011F000640D0A004D515454205055425F54504FD5
:1012000049433A25730D0A00A8A600204D515454B5
:10121000205355425F54504F49433A25730D0A00FD
:10122000A8A700204D51545420434C494E45545FCB
:1012300049443A25730D0A004D515454204B4545FD
:1012400050414C4956453A25640D0A00ACA800208F
:101250004D515454205553525F4E414D453A2573DC
:101260000D0A0000ACA900204D5154542055535292
:101270005F5057443A25730D0A0000002D2D2D2D87
:101280002D2D2D2D2D2D557361727420436F6E669B
:1012900069672D2D2D2D2D2D2D2D2D2D2D2D2D0D28
:1012A0000A00000052533438352031204241555451
:1012B0003A25640D0A00000052533438352032209C
:1012C000424155543A25640D0A000000525332330E
:1012D0003220424155543A25640D0A004E65747718
:1012E0006F726B204D6F64653A4554485F4D4F44B3
:1012F000455F4D5154540D0A000000004E6574774F
:101300006F726B204D6F64653A4D4F44455F3447B3
:101310005F4D5154540D0A0070B5164C8021204683
:1013200000F0DAFD014614A004F09CFEA115204651
:1013300000F0D2FD014613A004F094FE6515294685
:10134000204600F0C9FD014611A004F08BFE29469D
:10135000204600F0C1FD012804D010A004F082FE58
:10136000002070BD17A004F07DFE06F0C9FA012030
:1013700070BD000000080240535731313A25640D1A
:101380000A000000535731323A25640D0A0000006C
:10139000535731333A25640D0A00000077656C63BA
:1013A0006F6D6520746F206E6F726D616C206D6F54
:1013B00064652E2E2E2E2E2E2E2E2E2E2E2E0D0A25
:1013C0000000000077656C636F6D6520746F2063AB
:1013D0006F6E666967206D6F64652E2E2E2E2E2E21
:1013E0002E2E2E2E2E2E0D0A00000000014800F099
:1013F000F7BA0000E40D0020014800F0F1BA000047
:10140000C40F0020014800F0EBBA000024100020B7
:10141000014800F0E5BA0000040F0020014800F088
:10142000DFBA0000640F0020014800F0D9BA0000C4
:10143000440E0020014800F0D3BA0000A40E0020A2
:1014400001681823CAB2103AB2FBF3F2054B6FF3EE
:101450000901032A9B5CC36500D9091D8165084603
:10146000704700005CC7000810B5014600208B697A
:101470008A6A4FF0C07453B1B3F5005F15D072B1F2
:10148000012A0CD0022A0AD0032A09D104E01AB199
:10149000012A06D0022A03D1C96AC90100D5012058
:1014A00010BDC96AA142FAD010BD002AF7D0012AA6
:1014B000F2D0022AF3D0032AF3D010BD30B504686D
:1014C000256825F480252560046863608368402BC7
:1014D000036803D099600068C26030BD9A600068FC
:1014E000C16030BD10B507F075FE07F02BF8064857
:1014F000B0F80C1AB0F8080A8BB282B2BDE81040FE
:101500000249052007F06CB8989B00209CA500209C
:1015100070B519A004F0A6FD194D002419A0295D8D
:1015200004F0A0FD641C462CF8DB18A004F09AFD22
:10153000184C1748184A216800EB8100D0F8043491
:10154000032B02D0052B0BD103E0B5F803305BBAB7
:1015500002E0D5F803301BBA456802EB85052B6322
:10156000406802EB8000026B0CA004F07BFD206859
:10157000401C2060012070BD646174613A0000006D
:10158000F406002020253032780000000D0A00000B
:10159000988B002094010020086900207A746E5B0B
:1015A00025645D3A25640D0A000000000A4810B564
:1015B0000021016041608160C16001614161816120
:1015C000C161016241628162C16242F260213030D8
:1015D000FEF7A8FE012010BD08690020704740F208
:1015E000CE7302E01946491EFDD2401EFAD2704762
:1015F00072B6FEE770B50446074D08E0E0B203F0AE
:1016000087FC10B14FF0FF3070BD04F50064AC42B0
:10161000F4D9002070BD000000F8070803F036BDC3
:101620002DE9F0411646884605460024094F0DE095
:101630002868B8420CD858F82410286803F090FDA8
:10164000002805D12868001D2860641CB442EFD32F
:10165000BDE8F081FBFF070878B50024009490F8FE
:101660003C20012A19D0012280F83C200A68072377
:101670000568092A13D9EE680A3A02EB4202934040
:101680009E43EE600B788A680A3B03EB43039A4063
:101690000368DD682A43DA6010E0022078BD2E6915
:1016A00002EB420293409E432E610B788A6803EB63
:1016B00043039A4003681D692A431A614A681F233D
:1016C000072A13D205686E6B521E02EB820293400A
:1016D0009E436E630B790A885B1E92B203EB830311
:1016E0009A4003685D6B2A435A6327E005680D2A18
:1016F00012D22E6BD21F02EB820293409E432E63C6
:101700000B790A88DB1F92B203EB83039A400368CC
:101710001D6B2A431A6311E0EE6A0D3A02EB820256
:1017200093409E43EE620B790A880D3B92B203EB25
:1017300083039A400368DD6A2A43DA62164B056820
:10174000144A9D4206D10D68122D03D1556845F407
:101750008005556005689D4218D10B68102B01D09B
:10176000112B13D1536843F4000353600968102907
:101770000CD10A490A4A0968B1FBF2F101EB810177
:10178000490000E0491E00910029FBD180F83C404F
:10179000002078BD0023014000200140700000209F
:1017A00040420F0070B504004FF0000503D0206CDC
:1017B000002610B107E0012070BD204600F01CF8A3
:1017C000666484F83C60206CC00610D4206C20F461
:1017D000885040F0020020642046FFF73BFA666420
:1017E000206C20F0020040F00100206400E00125A0
:1017F00084F83C60284670BD10B586B004461421BC
:101800006846FEF78FFD1149206888421CD11048B8
:101810000021026842F480720260006800F4807067
:1018200005900B481438026842F004020260006818
:1018300000F0040005900F2000900320CDE9010185
:101840006946044800F050FA06B010BD002001407F
:10185000443802400008024070B54379012B1CD087
:10186000012646710223037105682B6802F01004FB
:1018700040F6FE72A2409343D1E900210A43A24000
:101880001A432A6001680A68C023A3409A430A6089
:10189000067100214171084670BD022070BD70B50F
:1018A000040003D02079002510B105E0012070BDAF
:1018B0006571204600F008F80220207125610120A2
:1018C0002071002070BD000010B586B004461421C0
:1018D0006846FEF727FD1149206888421CD1104850
:1018E0000021026842F000520260006800F00050DF
:1018F00005900B481038026842F00102026000684F
:1019000000F001000590102000900320CDE90101B6
:101910006946044800F0E8F906B010BD00740040C4
:1019200040380240000002402DE9F0410446876D36
:1019300000F0DCFA064694F835000025022806D0AF
:101940008020606584F834500120BDE8F081206873
:10195000016821F0160101602068416921F08001D1
:101960004161206C08B9A06C20B12068016821F0A9
:10197000080101602068016821F0010101600CE0AC
:1019800000F0B4FA801B052807D9202060650320E9
:1019900084F8350084F83450D7E720680068C00721
:1019A000EED194F85C103F208840B860012084F8A4
:1019B000350084F834500020C7E790F8351002292C
:1019C00003D08021416501207047052180F8351042
:1019D0000068016821F001010160002070470000EB
:1019E0002DE9F84304464FF00009CDF80090634814
:1019F0004FF41651A56D0068B0FBF1F72E6894F80E
:101A00005C10082000FA01F131420FD021680A6809
:101A100052070BD50A6822F004020A6094F85C10A1
:101A20008840A860606D40F00100606594F85C102B
:101A30004FF0010808FA01F0304208D021684969E6
:101A4000090604D5A860606D40F00200606594F856
:101A50005C1004208840304208D02168096889075A
:101A600004D5A860606D40F00400606594F85C10D7
:101A700010208840304218D021680968090714D521
:101A8000A86020680168490304D50068000308D5F0
:101A9000A16C07E00168C90503D4016821F00801C1
:101AA0000160216C09B12046884794F85C10202021
:101AB0008840304231D021680968C9062DD5A86018
:101AC00094F8350005282068016806D0490347D5F9
:101AD000006800031DD4616C1CE021F01601016058
:101AE0002068416921F080014161206C08B9A06C37
:101AF00020B12068016821F00801016094F85C10B1
:101B00003F208840A86084F8358084F83490216DA7
:101B10001FE0E16B09B120468847606D00282BD09B
:101B2000606DC00714D0052084F835002068016876
:101B300021F0010101600098401C0090B84203D8D8
:101B400020680068C007F6D184F8358084F83490A6
:101B5000E16C002910D001B02046BDE8F0430847F1
:101B60000168C905D5D4016821F01001016084F82D
:101B7000358084F83490CCE7BDE8F883700000200D
:101B80002DE9F041044600F0B1F906465CB10220AF
:101B900084F83500002584F834502068016821F06D
:101BA000010101600DE00120BDE8F08100F09EF927
:101BB000801B052805D920206065032084F83500A6
:101BC000F2E720680068C007F0D122681168204859
:101BD0000140D4E901031843D4E9033633431843E1
:101BE00063691843A3691843E3691843236A1843D8
:101BF0000843616A042903D1D4E90B13194308434C
:101C0000106020684069666A20F0070130460E4384
:101C1000012704280CD1A06A0643E06A40B120469F
:101C2000FFF722FC20B14020606584F83570BAE7E8
:101C3000206846612046FFF703FC94F85C203F21B2
:101C400091408160656584F835700020ACE7000044
:101C50003F8010F02DE9F0410446866D90F8340085
:101C6000002501280DD0012084F8340094F8357047
:101C70000020012F07D084F8340002252846BDE853
:101C8000F0810220FBE7022784F83570606520466A
:101C9000FFF714FC94F85C103F208840B060206887
:101CA000016841F016010160206C20B120680168D4
:101CB00041F0080101602068016841F00101016004
:101CC000DCE7000070B5044600F010F90546601C22
:101CD00002D004480078044400F008F9401BA042F8
:101CE000FAD370BD640000202DE9F84FDFF8BCA1E5
:101CF0000022012503264FF00F090AF1040BAAF177
:101D0000040E00BF0B6805FA02F42340A34270D111
:101D10000F7907F00307012F01D0022F16D1876832
:101D20004FEA420806FA08FC27EA0C07D1F80CC073
:101D30000CFA08FC4CEA070CC0F808C04768A74337
:101D40000C79C4F3001494403C4344600C79E443A0
:101D5000A4070AD0C4684FEA420C06FA0CF7BC4349
:101D60008F6807FA0CF72743C7600C7904F0030467
:101D7000022C12D1D40800EB840CDCF82040570769
:101D8000FF0E09FA07F824EA0804D1F8108008FACF
:101D900007F848EA0408CCF8208004684FEA420CAF
:101DA00006FA0CF7BC430F7907F0030707FA0CF7A4
:101DB000274307604C6814F4403F70D03C4C2768C0
:101DC00047F480472760246822F0030704F4804426
:101DD0000094384C07EB040CDCF8084897074FEAEE
:101DE000177809FA08F7BC43334FB84202D10027ED
:101DF00024E054E0314FB84201D101271EE0304FBA
:101E0000B84201D1022719E02E4FB84201D1032771
:101E100014E02D4FB84201D104270FE02B4FB842F8
:101E200001D105270AE02A4FB84201D1062705E073
:101E3000284FB84201D1072700E0082707FA08F722
:101E40002743CCF80878DAF800405746D1F804C0A8
:101E50009C435FEACC2C00D51C433C60DBF800407F
:101E60005F46D1F804C09C435FEA8C2C00D51C432C
:101E70003C60DEF800407746D1F804C09C435FEA3E
:101E80008C3C00D51C433C60084F083F3C68D1F8AF
:101E900004C09C435FEACC3C00D51C433C60521C10
:101EA000102AFFF42FAFBDE8F88F0000083C014076
:101EB000443802400030014000000240000402406B
:101EC00000080240000C02400010024000140240D2
:101ED00000180240001C02400069084000D00120A8
:101EE00070470AB1816170470904FBE701488068C7
:101EF00070470000640000200248816802781144A5
:101F000081607047640000200B4810B5016841F4FF
:101F100000710160016841F480610160016841F471
:101F200080710160032000F073F80F2000F006F8C4
:101F300000F024F8002010BD003C024070B50D4DAB
:101F400004464FF47A712878B1FBF0F00A49096829
:101F5000B1FBF0F000F02DFD48B9102C07D20022A3
:101F60002146501E00F034F800206C6070BD012046
:101F700070BD000064000020700000200C4882B09A
:101F8000016841F480410160006800F480400090E5
:101F90000748001F016841F080510160006800227D
:101FA00000F0805000900F21901E02B000F010B899
:101FB00044380240002809DB00F01F020121914053
:101FC0004009800000F1E020C0F8001170470000D7
:101FD000F0B40E4B1B680C46C3F30223C3F1070594
:101FE000042D00D90425191D072901D2002300E082
:101FF000DB1E012606FA05F1491E214099409E404C
:10200000761E16403143F0BC04F068B80CED00E0D9
:10201000064900F0070208684FF6FF03184040EA3F
:102020000220034A10430860704700000CED00E0F6
:102030000000FA05BFF34F8F05480168054A01F417
:10204000E06111430160BFF34F8F00BFFDE7000067
:102050000CED00E00400FA052DE9F0470E460500FE
:1020600065D0DFF81481D8F80000F7B200F007005F
:10207000B04207D288F80070D8F8000000F00700DE
:10208000B04254D128683D4C810712D5400703D592
:10209000206840F4E05020602878000703D52068CD
:1020A00040F4604020602068A96820F0F0000843F8
:1020B00020602878C0072DD0304968680839012889
:1020C00012D0022813D0032811D0096889070029EB
:1020D0002DDA216821F0030101432160FFF706FF9B
:1020E000814641F2883A0EE009688903EFE7096802
:1020F0008901ECE7FFF7FAFEA0EB0901514502D98F
:102100000320BDE8F0872068696800F00C00B0EBA0
:10211000810FEFD1D8F80010404601F00701B1421D
:1021200007D90770006800F00700B04201D0012015
:10213000E7E72878400705D52068E96820F4E050F3
:10214000084320602878000706D52068296920F414
:10215000604040EAC100206000F038F82168084A79
:10216000C1F30311515CC840064908600648006885
:10217000FFF7E4FE0020C4E7003C024008380240BC
:1021800064C700087000002068000020044805496A
:1021900000680968044AC1F38221515CC840704755
:1021A000700000200838024074C700080448054940
:1021B00000680968044AC1F34231515CC840704765
:1021C000700000200838024074C70008154810B598
:1021D000006810F00C02144813D01449042A0FD0E0
:1021E000082A0ED10F4C241F2268236802F03F02F8
:1021F0005B0207D52068C0F38810A0FB010106E050
:10220000084610BD2168C1F38811A1FB000100231D
:10221000FEF738F82168C1F30141491C4900B0FBC1
:10222000F1F010BD083802400024F40040787D0130
:102230002DE9F84F04006ED02078DFF84C93C007EA
:10224000A9F104054AD009F104000168C1F3810134
:10225000012908D00068C0F3810002280AD1D9F80A
:102260000000400206D52868800337D56068002842
:10227000E1D033E06068B0F5803F10D0B0F5A02F1A
:10228000286810D020F480302860286820F480204E
:1022900028606068A8B1FFF729FE06460DE02868AF
:1022A00040F48030F4E740F480202860F7E700BF76
:1022B000FFF71CFE801B642873D828688003F7D5BD
:1022C0000CE0FFF713FE064605E000BFFFF70EFE29
:1022D000801B6428F0D828688003F7D42078DFF8C2
:1022E000AC8280074FF0000A3ED5A748001D016868
:1022F00011F00C0F08D00068C0F3810002280BD148
:10230000D9F80000400207D42868800716D5E06895
:10231000012800D112E033E1E068B8B10120C8F82B
:102320000000FFF7E3FD064605E000BFFFF7DEFD16
:10233000801B0228C0D828688007F7D52868216943
:1023400020F0F80040EAC10028600DE0C8F800A0C5
:10235000FFF7CCFD064604E0FFF7C8FD801B02280E
:102360001FD828688007F7D42078000722D5864F29
:1023700087486169703771B101210160FFF7B6FDCF
:10238000064604E0FFF7B2FD801B022809D8386832
:102390008007F7D50EE0C0F800A0FFF7A7FD0646BE
:1023A00005E082E0FFF7A2FD801B02287DD8386897
:1023B0008007F7D42078400768D5DFF8CCB1002734
:1023C0000BF13C0BDBF80000C0000BD4DBF8001075
:1023D00041F08051CBF80010DBF80000012700F03D
:1023E000805000906B4E3068C00510D4306840F4C7
:1023F00080703060FFF77AFD009005E0FFF776FD12
:102400000099401A022850D83068C005F6D55E4EB3
:10241000A0686C3601280FD00528306810D020F055
:1024200001003060306820F004003060A068B8B16E
:10243000FFF75CFD00900FE0306840F00100F4E72A
:1024400040F004003060F7E7FFF750FD0099411AB3
:1024500041F28830814266D830688007F4D50EE0BA
:10246000FFF744FD009007E0FFF740FD0099411A97
:1024700041F28830814256D830688007F4D42FB1B9
:10248000DBF8001021F08051CBF80010A069C8B330
:102490003D49091D0968C1F3810102294AD002287A
:1024A000504607D0C8F8600000E03CE0FFF71EFD92
:1024B00004463BE04746C8F86000FFF717FD0646B4
:1024C00005E000BFFFF712FD801B02282BD828680B
:1024D0008001F7D4D4E907010843A16A2E4A4908CC
:1024E00002EB0141626A41EA8211084394F82C1020
:1024F00040EA0161C9F8001001203866FFF7F6FCD8
:10250000044606E03EE000BFFFF7F0FC001B022897
:1025100009D828688001F7D534E000BFFFF7E6FC52
:10252000001B022802D90320BDE8F88F286880012B
:10253000F4D427E00128F7D0D9F80000E26900F4CC
:10254000800191421CD1226A00F03F01914217D1D3
:1025500047F6C071626A0140B1EB821F10D1A26AD6
:102560004FF0FF3300F4403103EB5202B1EB024F66
:1025700006D194F82C1000F07060B0EB016F01D020
:102580000120D1E70020CFE7043802400000474295
:10259000800E4742007000400000FFFF70470000BF
:1025A00038B5016804464A688868C043430606D5C2
:1025B000C30704D1D3435B0601D4216C05E0830734
:1025C00008D4D3431B0605D4616C01B02046BDE896
:1025D00030400847830603D5430601D5C30551D4CF
:1025E000D3439B064ED443060AD494F85130032BB0
:1025F00049D0636D43F004036365CB688B68009337
:10260000830609D4636D43F0010363658B6800930F
:102610000B6823F040030B60C00506D4606D40F0EA
:1026200008006065206880680090606D002829D0EF
:102630002068416821F0E0014160012084F85100E8
:10264000900701D4D00722D02068416821F003010F
:102650004160114DE06C40B10565E06CFFF7ADF9EC
:1026600018B1606D40F040006065A06C002809D092
:102670000565A06CFFF7A1F9002803D0606D40F05C
:102680004000606538BDC8688868009038BD204645
:10269000FFF784FF38BD0000AD4D000870B50400A1
:1026A00009D0606A002540B125616561A56294F892
:1026B000510040B10CE0012070BD6068B0F5827F30
:1026C000F4D0E561F2E784F85050204600F044F879
:1026D000022084F851002068016821F04001016067
:1026E000A088218900F4827001F404410843A18983
:1026F00001F400610843217C01F002010843217DBF
:1027000001F001010843218B01F400710843217F8E
:1027100001F03801084394F8201001F080010843CB
:10272000218D01F40051084321680860A06904214B
:1027300001EA104094F8241001F0100108432168C8
:1027400048602068C16921F40061C16165650120AC
:1027500084F85100002070BD10B586B004461421E5
:102760006846FDF7DFFD17492068884228D11648E2
:102770000021026842F400420260006800F4004058
:10278000059011481038026842F0020202600068A9
:1027900000F002000590382000900220CDE90101F0
:1027A000032003900620049069460848FFF79CFA2E
:1027B000002205213320FFF70BFC3320FFF7FAFB43
:1027C00006B010BD003C004040380240000402400A
:1027D0002DE9F84F044690F8500000270A9E1D4648
:1027E00092468B464FF0010901280ED0012084F853
:1027F0005000FFF77BFB804694F851006168012888
:102800000CD0B1F5827F07D102E00220BDE8F88F3D
:10281000A16809B9042801D00227C2E0BBF1000F6A
:1028200027D0BAF1000F24D01DB394F8510004282A
:1028300002D0052084F8510000206065C4F838A05B
:10284000E587A587C4F830B0E586A5862064606476
:1028500020680168490603D4016841F04001016025
:10286000E068B0F5006F606805D0E8B3012D46D090
:102870007FE0012795E008B1012D39D1206B216857
:102880000088C860206B801C2063E08E401EE086BC
:102890002EE02068816889070FD5E18E69B1B9F112
:1028A000010F0AD1216B0988C160206B801C206355
:1028B000E08E401EE0864FF0000920688168C9075D
:1028C0000CD0E18F51B1C068A16B0880A06B801C57
:1028D000A063E08F401EE0874FF00109FFF706FB81
:1028E000A0EB0800B04200E009E001D3701C50D119
:1028F000E08E0028CDD1E08F0028CAD13FE0206BC8
:10290000216800780873206B401C2063E08E401E15
:10291000E0862EE02068816889070FD5E18E69B1D5
:10292000B9F1010F0AD1216B09780173206B401CAA
:102930002063E08E401EE0864FF000092068816829
:10294000C9070CD0E18F51B1C068A16B0870A06BB2
:10295000401CA063E08F401EE0874FF00109FFF7A5
:10296000C5FAA0EB0800B04202D3701C01D010E001
:102970007EB1E08E0028CDD1E08F0028CAD142463A
:102980003146204602F01AFA28B10127202060655E
:1029900007E0032705E0A06818B92068C1688068CF
:1029A0000090012084F85100002084F8500038463F
:1029B0002CE710B5401EB0F1807F01D3012010BD7F
:1029C0004FF0E02460610F21601703F087FB0020C7
:1029D000A06107202061002010BD704770470000F3
:1029E00070B590F83C20012A32D0012480F83C4098
:1029F000022280F83D2003685A689D6822F0700624
:102A00000A6832435A60134B02689A4214D0B2F1FA
:102A1000804F11D0104B9A420ED0104B9A420BD0DF
:102A20000F4B9A4208D00F4B9A4205D00E4B9A4258
:102A300002D00E4B9A4204D1496825F08003194315
:102A4000916080F83D40002180F83C10084670BD40
:102A5000022070BD0000014000040040000800405A
:102A6000000C0040000401400040014000180040FC
:102A700010B5040003D094F83D0010B107E0012028
:102A800010BD002084F83C00204600F01FF8022012
:102A900084F83D00211D206802F0F0FB012084F83D
:102AA000460084F83E0084F83F0084F8400084F833
:102AB000410084F8420084F8430084F8440084F81C
:102AC000450084F83D00002010BD000008B50168F5
:102AD0001448B1F1804F14D0134A914220D10168BB
:102AE00041F0040101600068002200F00400009041
:102AF00005211E20FFF76CFA1E20BDE80840FFF7F5
:102B000059BA016841F0010101600068002200F03B
:102B10000100009005211C20FFF75AFA1C20ECE769
:102B200008BD0000403802400008004090F83D1009
:102B3000012901D001207047022180F83D10016871
:102B4000CA6842F00102CA6000681149884214D084
:102B5000B0F1804F11D00F4988420ED00E49884203
:102B60000BD00E49884208D00D49884205D00D4946
:102B7000884202D00C49884204D1816801F00701E3
:102B8000062903D0016841F001010160002070476F
:102B9000000001400004004000080040000C00401C
:102BA00000040140004001400018004070B5044698
:102BB00090F83C000025012817D0012684F83C60DD
:102BC000022084F83D002068826822F0770222F417
:102BD0007F4282600868502838D00DDC20284FD012
:102BE00005DC90B3102811D14AE0022070BD3028D6
:102BF00046D040280AD13BE060282FD070280DD065
:102C0000B0F5805F03D0B0F5005F12D0012584F8E5
:102C10003D60002084F83C00284670BDCB68D1E9B7
:102C20000121206802F08EFB2068816841F0770165
:102C300009E0CB68D1E90121206802F083FB20681C
:102C4000816841F480418160E1E719E0CA68496820
:102C5000206802F089FB5021206806E0CA684968B4
:102C6000206802F092FB6021206802F075FBCEE73D
:102C7000CA684968206802F077FB40212068F4E7C1
:102C8000226801461046F0E7704770B504460068B8
:102C900001694FF00005C943890715D4C168C943CC
:102CA000890711D4E91E016101202077206880691D
:102CB0008007204602D0FFF7E7FF04E000F098F815
:102CC000204600F096F8257720680169C943490736
:102CD00017D4C168C943490713D46FF004010161D7
:102CE000022020772068806910F4407F204602D0BF
:102CF000FFF7CAFF04E000F07BF8204600F079F807
:102D0000257720680169C943090716D4C168C943FA
:102D1000090712D46FF008010161042020772068B0
:102D2000C0698007204602D0FFF7AEFF04E000F044
:102D30005FF8204600F05DF8257720680169C943F7
:102D4000C90617D4C168C943C90613D46FF010016E
:102D50000161082020772068C06910F4407F204678
:102D600002D0FFF791FF04E000F042F8204600F0A7
:102D700040F8257720680169C943C90708D1C168AF
:102D8000C943C90704D1891E0161204600F032F809
:102D900020680169C943090609D4C168C943090605
:102DA00005D46FF0800101612046FFF716FE206810
:102DB0000169C943490609D4C168C943490605D414
:102DC0006FF040010161204600F026F8206801699B
:102DD000C94389060BD4C168C943890607D46FF07B
:102DE000200101612046BDE87040FFF7F7BD70BDCE
:102DF00070477047064900680968884201D1FEF7AC
:102E000071BB04490968884201D102F0FDBF7047D7
:102E1000440C00208C0C00207047704710B504460D
:102E20000068406994F83D10C0F3C010212911D109
:102E300080B12068143050E8001F21F0800140E884
:102E40000012002AF5D1606B08B1FEF76DFD204637
:102E500002F0E4FB2068406994F83E10C0F3801053
:102E6000222911D180B12068143050E8001F21F0D0
:102E7000400140E80012002AF5D1A06B08B1FEF72E
:102E800053FD204602F0A3FB002010BD7047000058
:102E9000F8B5016804460868CA684B6910F00F0F5E
:102EA0004FF0000559D003F0010602F49077374344
:102EB00065D0C10705D0D10503D5216C41F00101D2
:102EC0002164410705D5D90703D0216C41F00201E7
:102ED0002164810705D5D90703D0216C41F0040195
:102EE0002164010707D502F02001314303D0216C92
:102EF00041F008012164216C00293AD0800604D5F4
:102F0000900602D5204602F097FB20684069216CAC
:102F1000C0F38010090700D460B3204602F057FBCD
:102F200020684069400621D52068143050E8001F11
:102F300021F0400140E80012002AF5D1A06BA8B1B1
:102F40006C490165A06BFEF738FD002811D0A06B1D
:102F5000016D01B0BDE8F040084783060FD5930628
:102F60000DD52046BDE8F84002F066BB2046FFF7CD
:102F70008DFFF8BD2046FFF789FF2564F8BD266B5D
:102F80002023012E79D1C60677D5D60675D50868D7
:102F9000486800904869400640D5A16B08684068C1
:102FA0000004000CEAD0A28D8242E7D9E085C8690E
:102FB000B0F5807F2DD020680C3050E8001F21F440
:102FC000807140E80012002AF5D12068143050E8E2
:102FD000001F21F0010140E80012002AF5D120680D
:102FE000143050E8001F21F0400140E80012002A90
:102FF000F5D184F83E30256320680C3050E8001F7E
:1030000021F0100140E80012002AF5D1A06BFEF774
:103010008BFCA08DE18D401A81B229E0A08DE18D5D
:10302000401A81B2E08D0028A8D00029A6D02068DF
:103030000C3050E8002F22F4907240E80026002E59
:10304000F5D12068143050E8002F22F0010240E84A
:103050000026002EF5D184F83E30256320680C3020
:1030600050E8002F22F0100240E80023002BF5D199
:103070002046FFF7D2FEF8BDFFE705062BD5150663
:1030800029D594F83D002128F5D1A068B0F5805FDE
:1030900001D12069B0B1206A411C21622168007809
:1030A0004860E08C401E0004000CE084E3D12068FE
:1030B000C16821F08001C1602068C16841F0400111
:1030C000C160D8E7206A0088C0F308004860206A21
:1030D000801C2062E5E74006CDD55006CBD5CA68F6
:1030E000204622F04002CA6084F83D3000F09FFA8A
:1030F000C1E70000D954000870B5040004D094F86A
:103100003D00002510B106E0012070BD84F83C5060
:10311000204600F023F8242084F83D002068C16890
:1031200021F40051C160204602F0E6FA20680169EE
:1031300021F4904101612068416921F02A01416137
:103140002068C16841F40051C1602564202084F8E2
:103150003D0084F83E00002070BD00002DE9F04FD6
:1031600087B0044614216846FDF7DCF8CB48DFF849
:10317000288310380221D4F800C0C84B0322DFF89E
:1031800020B300258E060715C44557D1D3F800C0DB
:103190004CF4801CC3F800C01B6803F48013059333
:1031A000036843F004030360036803F0040305931A
:1031B000036843F0080303600068894600F00800D4
:1031C0000590C802CDE90009CDE902524FF0080888
:1031D00092466946CDF810805846FEF785FD0420DA
:1031E000CDE90009CDE9025A6946CDF81080AD4815
:1031F000FEF77AFDDFF8B482AB494046C8F800100C
:10320000C0E90165C0E90357C8F81450C8F8185060
:10321000C8F81C50C8F82050C8F82450FEF7B0FC7D
:1032200008B1FEF7E5F9C4F8388000220521352001
:10323000C8F83840FEF7CCFE352067E0DFF8708232
:10324000DFF870E24FF007094FF0400AC44562D141
:10325000924BAB461B1DD3F800C04CF0100CC3F8CA
:1032600000C01B6803F010030593036843F00103DB
:103270000360006800F0010005904FF4C0608DE825
:103280002300CDE9032969467046FEF72DFDDFF8DE
:103290001C82894908F160084046C8F80010C0E95E
:1032A0000165C0E90357C8F81450C8F81850C8F8A9
:1032B0001C50C8F82050C8F82450FEF761FC08B133
:1032C000FEF796F9794D7C48C4F83880C0357830DF
:1032D000C8F8384085E84104C5E903B7C5F814B01B
:1032E000C5F818B0C5F81CB0C5F820B02846C5F818
:1032F00024B0FEF745FC08B1FEF77AF965630022B9
:1033000005212520AC63FEF763FE2520FEF752FE63
:1033100007B0BDE8F08FDFF8A481C4455AD1D3F8D7
:1033200000C0A8464CF4003CC3F800C01B6803F47E
:1033300000330593036843F001030360006800F065
:10334000010005900C208DE82300CDE90329694692
:103350007046FEF7C9FC5449DFF86491783148465D
:10336000C9F80010C0E90165C0E90357C9F8145055
:10337000C9F81850C9F81C50C9F82050C9F8245091
:10338000FEF7FEFB08B1FEF733F94D4D4648C4F891
:10339000389060359030C9F8384085E84104C5E977
:1033A0000387C5F81480C5F81880C5F81C80C5F8D7
:1033B00020802846C5F82480FEF7E2FB08B1FEF71E
:1033C00017F96563002205212620AC63FEF700FE95
:1033D00026209BE7DFF8EC80C44599D1D3F800C0E4
:1033E000A8464CF4802CC3F800C01B6803F480236B
:1033F0000593036843F004030360006800F00400D1
:1034000005904FF440608DE82300CDE9032969461B
:103410005846FEF769FCDFF8A890234909F1C00976
:1034200018314846C9F80010C0E90165C0E90357E2
:10343000C9F81450C9F81850C9F81C50C9F82050E0
:10344000C9F82450FEF79CFB08B1FEF7D1F81648E6
:103450001D4DC4F838904830C9F8384085E841041B
:10346000C5E90387C5F81480C5F81880C5F81C8025
:10347000C5F820802846C5F82480FEF781FB08B1F6
:10348000FEF7B6F86563002205212720AC63FEF73E
:103490009FFD27203AE700000050004040380240DE
:1034A00000080240000C024010600240E40D0020C1
:1034B000001001400000024040640240004400400F
:1034C000040F0020004800402410002090F83E30F7
:1034D000202B0ED159B152B190F83C30012B08D0BD
:1034E000012380F83C300023036302F08BB90120F4
:1034F00070470220704790F83E30202B0ED159B112
:1035000052B190F83C30012B08D0012380F83C30B8
:103510000023036302F0C0B9012070470220704706
:1035200070B500680E490F4C012588420DD16168C5
:1035300004F1080000EBC1010B4801F054FB4621E7
:103540000948FCF7EFFE657070BD08498842FBD161
:10355000054907A0463102F085FD257070BD0000C9
:103560000048004000000020F40600200044004015
:1035700025730D0A00000000704700002DE9F84394
:10358000044690F83D001F4616460D4620284CD1B3
:10359000C5B1BEB194F83C00012846D0012084F8A2
:1035A0003C004FF00008C4F84080212084F83D0022
:1035B000FEF79CFCA6848146E684A068B0F5805F97
:1035C00003D004E00120BDE8F883206928B12E462D
:1035D0005FF0000584F83C800EE00026FAE78021C9
:1035E000204602F076F9A0B9AEB116F8010B2168B9
:1035F0004860E08C401EE084E08C4B464FF00002B7
:1036000000970028EBD14FF04001204602F061F90D
:1036100030B10320D7E735F8020BC0F30800E6E726
:10362000202084F83D000020CDE70220CBE7704742
:10363000FEE700002DE9F047224C074600252078E0
:103640000E46A94604F13008D0B1FF224146C0B26F
:10365000032809D8AE4202D97B5D0B5400E00A541E
:10366000401C20706D1CF2E7164901223031081D04
:10367000FDF7D6FF84F80090AE4201D92F44761BA7
:10368000B10816F0030011D0236AA2699A420CD047
:1036900084F800904346BD192A1A167822789E5461
:1036A000521C2270401EF7D100E0491C002907D0AF
:1036B0008AB23946BDE8F04702483430FDF7B0BF62
:1036C000BDE8F087DC0000202DE9F04FA9B00446EA
:1036D000022259A1FCF7B4FE00287CD157A1204654
:1036E000FCF78CFE01461DA8FCF770FE53A10020DC
:1036F000FCF784FE014622A8FCF768FE4FA10020DB
:10370000FCF77CFE014601A8FCF760FE4BA10020FF
:10371000FCF774FE014609A8FCF758FE48A11DA855
:10372000FCF76CFE46A10020FCF768FE45A1FCF703
:1037300065FEFCF79EFE814642A10020FCF75EFE7E
:10374000FCF797FE07463FA10020FCF757FEFCF769
:1037500090FE1A903BA10020FCF750FEFCF789FE7A
:10376000824637A122A8FCF749FE35A10020FCF7CC
:1037700045FEFCF77EFE189031A101A8FCF73EFE45
:103780002FA10020FCF73AFE2EA1FCF737FEFCF734
:1037900070FE17902BA10020FCF730FEFCF769FEAD
:1037A000834628A10020FCF729FEFCF762FE804634
:1037B00024A10020FCF722FEFCF75BFE064620A1B8
:1037C00009A8FCF71BFE1EA10020FCF717FE1DA197
:1037D000FCF714FE00E02CE0FCF74BFE054619A1B7
:1037E0000020FCF70BFEFCF744FE044615A1002068
:1037F000FCF704FEFCF73DFE119012A10020FCF73F
:10380000FDFDFCF736FE104981F800904F701A9AC2
:103810008A7081F803A0189A0A61179A0A7181F8D0
:1038200005B081F80680CE710D724C72119A8A72C1
:10383000C87229B0BDE8F08F495000003B0000007D
:103840003A0000002E00000088A500200F49104813
:103850000A7802704A7842708A788270C978C1709A
:103860000A49091D0A7802714A7842718A78827180
:10387000C978C171054908310A7802724A784272E2
:103880008A788272C978C17201207047BC01002019
:1038900088A500202DE9F04FADF5777D044605227F
:1038A00085A1FCF7CDFD00287ED185A12046FCF73F
:1038B000A5FD0146E2A8FCF789FD81A12046FCF7A1
:1038C0009DFD0146E7A8FCF781FD7DA12046FCF7A0
:1038D00095FD0146ECA8FCF779FD79A12046FCF79F
:1038E0008DFD01466846FCF771FD75A12046FCF789
:1038F00085FD014619A8FCF769FD71A12046FCF77A
:103900007DFD0146F1A8FCF761FD6DA12046FCF7A5
:1039100075FD0146C8A8FCF759FD69A12046FCF7D2
:103920006DFD014632A8FCF751FD65A12046FCF76C
:1039300065FD01464BA8FCF749FD62A1E2A8FCF732
:103940005DFD60A10020FCF759FD5FA1FCF756FD6D
:103950000446FCF78EFD06465BA12046FCF74EFDB3
:103960000446FCF786FD074657A12046FCF746FDB6
:103970000446FCF77EFD054653A12046FCF73EFDBC
:10398000FCF777FD04464FA1E7A8FCF737FD4DA1F2
:103990000020FCF733FDFCF76CFD00F0FF0A49A1A5
:1039A000ECA8FCF72BFD00E082E046A10020FCF72C
:1039B00025FDFCF75EFD00F0FF0B42A16846FCF719
:1039C0001DFD40A10020FCF719FD02463FA164A89F
:1039D00002F058FB3BA119A8FCF710FD39A100200B
:1039E000FCF70CFD024639A17DA802F04BFB35A186
:1039F000F1A8FCF703FD33A10020FCF7FFFCFCF766
:103A000038FD00F0FF092FA1C8A8FCF7F7FC2DA195
:103A10000020FCF7F3FC02462CA1D5A802F032FBF3
:103A200028A132A8FCF7EAFC26A10020FCF7E6FC5E
:103A3000024626A196A802F025FB22A14BA8FCF77E
:103A4000DDFC20A10020FCF7D9FC02461FA1AFA895
:103A500002F018FBDFF8788064AA1CA188F8046AD9
:103A600088F8057A88F8065A88F8074AC8F80CBA20
:103A700008F53160C8F808AA02F004FB7DAA13A17A
:103A800008F5216002F0FEFAD5AA10A108F614503C
:103A9000C8F8109D02F0F6FA96AA0CA108F6146078
:103AA00002F0F0FAAFAA09A108F5416002F0EAFAC3
:103AB0000DF5777DBDE8F08F4D5154495000000061
:103AC0003B0000003A0000002E00000025730000BB
:103AD000989B00202DE9FC5F8046DDE90EA00024C4
:103AE000CDE90004994617460E462546DDF834B068
:103AF000684607F02FFD60F30704200903282CD146
:103B0000C4F3C00188F80010C4F34100306004F031
:103B10000100387001A9009800F03EF800990546B0
:103B20000844019900904418224669460C9807F011
:103B30002EFD90B10098201A0FD43068002804DDC3
:103B4000684607F01BFDA9F800000098211ACAF882
:103B5000001000990125CBF800102846BDE8FC9F15
:103B6000F8B5012500240E4607460C60641C042CA1
:103B70000FDC01216846B84701280AD19DF80000F2
:103B8000316800F07F0202FB0511ED013160000693
:103B9000ECD42046F8BD0000024A10600248FFF74E
:103BA000DFBF0000B80100207979000810B5034696
:103BB0000020CA1701EB526424F07F02891ACAB2AE
:103BC000E111002902DD00BF42F080021A5400F129
:103BD0000100EEDC10BD0000401C802801DA401C12
:103BE0007047B0F5804F01DA801C70470349884266
:103BF00001DAC01C7047001D70470000FFFF1F0066
:103C0000F8B50024069E05460090042901DAA01E9E
:103C1000F8BD62F3071463F3C304062A24F0060018
:103C200000D1801CC1B2684608F06EFB02210098EA
:103C3000FFF7BCFF0099084400903146684608F041
:103C400069FB0098401BF8BD2DE9F843074600903A
:103C5000884614460025104600F082F88146FFF79A
:103C6000BBFF404502DDA81EBDE8F8832E46314665
:103C700066F307016846103108F046FB4946009894
:103C8000FFF794FF009908440090207A04281DD083
:103C90002FA1684608F024FB0321684608F034FB96
:103CA000A07E66F3070560F34105E07E08B145F0AC
:103CB0000405680707D594F83D0060F3C40594F83F
:103CC0003C0060F34515206C40B905E022A1684630
:103CD00008F006FB0421E0E7A06C08B145F0800580
:103CE000E06C08B9606D08B145F0400529466846AA
:103CF00008F00AFB218B684608F00CFB04F10C016C
:103D000068460EC908F015FBE07E68B124346846A9
:103D100094E80E00243C08F00CFB3034684694E82C
:103D20000E00303C08F005FB280605D504F14001E3
:103D300068460EC908F0FDFA680605D54C34684699
:103D400094E80E0008F0F5FA0098C01B8CE700001C
:103D50004D514973647000004D51545400000000EF
:103D600070B50446007A0025032802D0042802D04A
:103D700002E00C2500E00A2504F10C0007C800F061
:103D8000E7FC0544E07EAD1C78B1243494E80700DC
:103D9000243C00F0DDFC3034064694E80700303C5B
:103DA00000F0D6FC304405442D1D206C08B9A16CF0
:103DB00029B1D4E9111200F0CBFC0544AD1CE06C34
:103DC00008B9616D29B1D4E9141200F0C1FC0544B1
:103DD000AD1C284670BD0C2200F0B7B808B5002312
:103DE00000920422FFF70CFF08BD2DE9FC5F1C4682
:103DF000129ECDE90060DDF838B09046DDF830A0C5
:103E0000DDE90F23894607465946204600F030F881
:103E10000546FFF7E1FE484503DD6FF00100BDE810
:103E2000FC9F302168F3C30164F342016AF300018F
:103E300001A808F069FA29460198FFF7B7FE019931
:103E400008440190DDE90F23594601A808F071FAF2
:103E5000002C03DD01A80D9908F05CFA3246119997
:103E60000198FCF746FA019830440190C01BD6E750
:103E700070B50E46114604461A463046049D00F0C1
:103E800067FC2844801C002C00DD801C70BD0000F5
:103E90002DE9FF4F83B0064610A8894690E88009B7
:103EA00000249246254641463846009600F036F8F2
:103EB0000190FFF791FE484503DDA01E07B0BDE865
:103EC000F08F64F3070480346AF3C30424F006001F
:103ED000801CC1B2684608F017FADDE90001FFF75F
:103EE00065FE0099084400906846069908F012FAA9
:103EF0000FE000BF05EB450108EB810090E80E00E4
:103F0000684608F016FA1BF80510684608F0FCF938
:103F10006D1CBD42EEDB0098801BCFE72DE9F04120
:103F200002250F46064600240AE000BF04EB4400C9
:103F300007EB800007C800F00BFC0544641CED1C77
:103F4000B442F3DB2846BDE8F08138B500230446CF
:103F50000090022901DA981E38BD194663F3070163
:103F600062F30711684608F0CFF900210098FFF7C7
:103F70001DFE009908440090001B38BD2DE9F04F4C
:103F8000EE48EF4C00262DED028BADF52F7D06603F
:103F90002069401C2061E068002858D101221146A8
:103FA000E848FDF79EFFE8A002F05CF80120E06021
:103FB000E7A20521E7A004F079FB41F28835284605
:103FC00004F05EFAE5A20B21E6A004F06FFB2846A0
:103FD00004F056FAE6A20921E6A004F067FB2846A1
:103FE00004F04EFAE6A20B21E7A004F05FFB28469E
:103FF00004F046FAE7A20D21E7A004F057FB28469B
:1040000004F03EFAE3A21B21E7A004F04FFB284690
:1040100004F036FADFA21E21EAA004F047FB28468E
:1040200004F02EFAEFA22421F1A004F03FFB284671
:1040300004F026FAF8A25C21FA4804F037FB28467F
:1040400004F01EFAD3A23021F7A004F02FFB206960
:10405000B0F57A6F7EDD4FF47A7843460822FE4948
:10406000FE482661FFF78AFAFD4F4622FD49FB48CC
:10407000FFF72CFA3878012803D00A2004F000FA60
:10408000F3E703F0E5FC8346F7A003F0E9FC024602
:10409000FAA1584603F0A4FCFAA003F0E1FC0246A2
:1040A000FAA1584603F09CFC9FEDF98BB0EE480A4C
:1040B000F0EE680A03F0B4FC0246F7A1584603F09C
:1040C0008FFC03F0C5FC0546F4A003F0C9FC0246D2
:1040D000F3A1284603F084FCF0A003F0C1FC0246E3
:1040E000F1A1284603F07CFCF0A003F0B9FC0246E5
:1040F000F0A1284603F074FCEFA003F0B1FC0246E7
:10410000EFA1284603F06CFC2A46EEA1584603F0C6
:1041100067FC03F09DFC8246B0EE480AF0EE680AA8
:1041200003F07EFC0246E9A1504603F059FC03F07F
:104130008FFC81466069E74D05286DD2DFE800F00D
:1041400003366D929F00D5F8C00105F5E075FCF7C8
:10415000B6FA00E065E241EC100B03F061FC0246A8
:10416000DDA1484603F03CFC6868FCF7A8FA41EC86
:10417000100B03F055FC0246DBA1484603F030FC6F
:10418000A868FCF79CFA41EC100B03F049FC0246CE
:10419000D7A1484603F024FCE868FCF790FA41EC0C
:1041A000100B03F03DFC0246D3A12FE0D5F8D0015F
:1041B00005F5E875FCF783FA41EC100B03F030FCD1
:1041C0000246D0A1484603F00BFC6868FCF777FA7A
:1041D00041EC100B03F024FC0246CDA1484603F04D
:1041E000FFFBA868FCF76BFA41EC100B03F018FC1E
:1041F0000246C9A1484603F0F3FBE868FCF75FFA02
:1042000041EC100B03F00CFC0246C5A1484603F03C
:10421000E7FB6069401C606160E0D5F8E00105F5EE
:10422000F075FCF74CFA41EC100B03F0F9FB024679
:10423000BFA1484603F0D4FB6868FCF740FA41ECA4
:10424000100B03F0EDFB0246BCA1484603F0C8FB8F
:10425000A868FCF734FA41EC100B03F0E1FB0246CE
:10426000B8A1D3E7D5E97B1040EA0120FCF727FA93
:1042700041EC100B03F0D4FB0246B5A1C6E7D5F81C
:10428000F401FCF71CFA41EC100B03F0C9FB0246E9
:10429000B0A1484603F0A4FBD5F8F801FCF70FFAEB
:1042A00041EC100B03F0BCFB0246ADA1484603F005
:1042B00097FBE86AFCF703FA41EC100B03F0B0FB44
:1042C0000246A9A1484603F08BFBA9A003F0C8FB56
:1042D0000246A8A1484603F083FB66614A46A7A1AF
:1042E000504603F07DFB03F093FB0446514603F078
:1042F00068FB2246A2A1584603F072FB584603F021
:1043000031FC04460146A0A001F0ACFE4FF4C87099
:1043100004F0B6F8642196A8FCF704F84FF416717F
:104320006846FBF7FFFF2046FCF73BF8024699A1E1
:1043300096A801F0A7FE96A84AE10000040000201C
:10434000980100200004024034472055500D0A0017
:104350004154000041540D0A000000005245414400
:104360005900000041542B4350494E3F0D0A0000B4
:104370004353510041542B4353510D0A0000000098
:10438000435245470000000041542B435245473FEC
:104390000D0A00004F4B000041542B51494143543A
:1043A0003D310D0A0000000041542B514D5443464D
:1043B000473D22716D7470696E67222C302C33304A
:1043C0000D0A000041542B514D544346473D227283
:1043D0006563762F6D6F6465222C302C302C310D87
:1043E0000A0000002B514D544F50454E0000000074
:1043F00041542B514D544F50454E3D302C22647446
:104400002E7A746E2D746563682E636F6D222C3165
:104410003838330D0A0000002B514D54434F4E4E97
:1044200000000000206C020841542B514D5453559C
:10443000423D302C312C222F7A746E2F536F6C61D9
:1044400072546573745430303031315F34472F67A4
:104450006574222C300D0A0008000020A00D0020F9
:1044600001000020F4060020536F6C6172546573E4
:10447000745430303031315F3447000064436F7220
:104480006500000064645F310000000076000000F9
:10449000000000000000F03F720000004C5A48008D
:1044A000494D45490000000053494D0044545531E1
:1044B0002E3031005356000058544454550000002B
:1044C00048560000657874656E640000706F727401
:1044D00000000000086900206368617267655F730F
:1044E0007461747573000000565F706F77657200B9
:1044F000565F626174000000495F636861726765BE
:1045000000000000565F6F75747075740000000045
:10451000565F6C6F61640000495F6C6F61640000FE
:10452000706F7765725F6368617267650000000095
:10453000706F7765725F6C6F61640000545F6261D9
:1045400074000000545F696E7369646500000000C8
:10455000433032004661756C745F636F646573004D
:1045600053797374656D0000537572706C757300C8
:10457000313600005369676E616C000076616C0033
:1045800073446174610000006D795F7374723A2541
:10459000730D0A0041542B514D5450554245583D1E
:1045A000302C302C302C302C222F7A746E2F536FFD
:1045B0006C6172546573745430303031315F3447FC
:1045C0002F757064617465222C25640D0A0000004B
:1045D000FBF7E7FE82B24546434696A91448FEF72C
:1045E000CDFF4FF4FA7003F04BFF224611A168464D
:1045F00001F048FD6846FBF7D4FE01460FA001F02C
:1046000031FD6846FBF7CDFE82B22B46694608486D
:10461000FEF7B4FF204604F0A5F8584603F02EFA42
:104620003E700DF52F7D0120BDEC028BBDE8F08FB3
:104630005C0D002025730D0A0D0A00006D71747465
:104640005F6275663B25640D0A00000004F0CAF93C
:1046500027A001F007FD2A4D41F604202F18294C10
:10466000002605F5805500BFB5F80C0A394683B21F
:10467000B5F8080A82B2052003F0B2FF207010B12D
:10468000607820B10DE06670A670A6802AE01E4911
:10469000052007F0EDF938B1002060702178C1B134
:1046A000A0B1A07810B111E00120F6E717A22549CA
:1046B000052006F03FFEC8B10020A0702248FEF79A
:1046C00035FA2248FEF732FA207810B1A088401C53
:1046D000A080A088A0F58851943903D1A680052038
:1046E00005F0BEFA0A2003F0CBFEBDE70120E4E7A7
:1046F000696E69745F4E6574204F4B0D0A000000AF
:10470000988B002098010020A8A600207B226443FB
:104710006F6465223A0922534757303430303030C5
:10472000385F3447222C202264617461223A097B6D
:10473000225369676E616C223A22313622207D7DD8
:1047400000000000A8A50020440C00208C0C0020D4
:1047500010B510B1FBF725FE0146084610BD00005C
:104760007FB50024154800940194029412490394E3
:1047700001604FF48031C0E901140461047680F8CF
:1047800020400F49C0E90A140125C561C46080F8C2
:1047900030404561FDF706F808B1FCF729FF0A2013
:1047A000CDE90005694602940448FCF755FF00284E
:1047B00001D0FCF71DFF7FBD00200140900B0020C1
:1047C0000100000F1CB500240C4900940A48019414
:1047D00008600846FDF763F808B1FCF709FF00948C
:1047E0000022694605480194FDF736F8002801D0FB
:1047F000FCF7FEFE1CBD000000740040D80B00203A
:10480000254808B5016841F480010160016801F4A0
:1048100080010091016841F40011016000680022EC
:1048200000F40010009005210B20FDF7D1FB0B20B8
:10483000FDF7C0FB002205210C20FDF7C9FB0C2071
:10484000FDF7B8FB002205210E20FDF7C1FB0E206D
:10485000FDF7B0FB002205211020FDF7B9FB102069
:10486000FDF7A8FB002205211120FDF7B1FB112067
:10487000FDF7A0FB002205213A20FDF7A9FB3A2015
:10488000FDF798FB002205214620FDF7A1FBBDE8BE
:1048900008404620FDF78EBB3038024010B58EB080
:1048A0001C220B496846FBF724FD0021684604F0F2
:1048B00082FE084C06491C2220601C3107A8FBF729
:1048C00018FD002107A804F076FE60600EB010BD50
:1048D00024C70008500000202DE9F04387B01421C0
:1048E0006846FBF71FFD33480024016841F00401CE
:1048F0000160016801F004010591016841F0800147
:104900000160016801F080010591016841F0010139
:104910000160016801F001010591016841F00801A1
:104920000160016801F008010591016841F0020190
:1049300001600068204F00F002004CF2B0050590C5
:10494000002229463846FDF7CCFADFF870800022B5
:1049500040214046FDF7C5FADFF86490BE150022FD
:1049600031464846FDF7BDFA00950125CDE90154D1
:10497000694638460394FDF7B7F940200090CDE929
:104980000154694640460394FDF7AEF98020CDE915
:104990000004694640460294FDF7A6F90096CDE969
:1049A0000154694648460394FDF79EF907B0BDE8F7
:1049B000F083000030380240000C02400008024042
:1049C0000000024010B5114C0F484FF400712060F8
:1049D0004FF4827060600020A060E0602061C4E954
:1049E0000501E06120626062A0620A20E062204668
:1049F000FDF754FE08B1FCF7FBFD2068016841F0AB
:104A00004001016010BD0000003C0040EC0B0020A4
:104A100010B586B0002417480094019402940394C2
:104A200004944FF080410594016042F2CF01C0E947
:104A3000011440F2E731C0E9031480218161FEF7DF
:104A400017F808B1FCF7D4FD4FF480500090694688
:104A50000848FEF7ABF808B1FCF7CAFD049404A9B6
:104A600004480594FDF7BCFF002801D0FCF7C0FD09
:104A700006B010BD440C002010B586B000241848C4
:104A800000940194029403940494144905940160E1
:104A900042F2CF01C0E9011442F20F71C0E90314E0
:104AA00080218161FDF7E4FF08B1FCF7A1FD4FF41F
:104AB0008050009069460A48FEF778F808B1FCF784
:104AC00097FD049404A906480594FDF789FF002882
:104AD00001D0FCF78DFD06B010BD000000080040BD
:104AE0008C0C002010B50E4C0C480C2120604FF4AB
:104AF000E13060600020A060E060C4E90401A061D2
:104B0000E0612046FEF7F8FA08B1FCF771FD206875
:104B1000C16841F01001C16010BD000000500040AC
:104B2000D40C002010B50E4C0C480C2120604FF422
:104B3000E13060600020A060E060C4E90401A06191
:104B4000E0612046FEF7D8FA08B1FCF751FD206875
:104B5000C16841F01001C16010BD000000100140AB
:104B6000180D002010B50E4C0C480C2120604FF49D
:104B7000E13060600020A060E060C4E90401A06151
:104B8000E0612046FEF7B8FA08B1FCF731FD206875
:104B9000C16841F01001C16010BD00000044004038
:104BA0005C0D002010B50E4C0C480C2120604FF419
:104BB000E13060600020A060E060C4E90401A06111
:104BC000E0612046FEF798FA08B1FCF711FD206875
:104BD000C16841F01001C16010BD000000480040F4
:104BE000A00D0020FEE710B543788278032B01D199
:104BF000FCF78EFC012010BD70B51D481D4C1C4DEE
:104C000001782170417861708178A170C0780C3D85
:104C1000E0702869606068694FF48076A060324671
:104C200005F1240104F10C00FBF763FB324605F5A6
:104C3000927104F58670FBF75CFB324605F509714D
:104C400004F50370FBF755FBA869C4F80C03324662
:104C500005F5497104F54470FBF74BFB324605F24C
:104C6000244104F58260FBF744FB012070BD000085
:104C7000C80100209CA50020FEE7000070B5134984
:104C8000486A401C4862C0071FD1114C41F204051C
:104C90002068401E2060C0EB001004EB8000284418
:104CA000FBF77FFB01462068C0EB001004EB80009F
:104CB0002844FBF737FB2168002004EB81014860A2
:104CC0002046BDE8704006F035BD70BDDC00002018
:104CD000988B00201CB50649002003F0F1FA044926
:104CE000012003F0EDFA6946082003F00FFB1CBD1C
:104CF000600100202DE9FC470027184E89468046B8
:104D00003D460124776007E008EB07000F2214A15D
:104D1000FBF765FB48B17F1C4F45F5D37068C8B100
:104D2000002108EB00036A4605E010377760F5E7DD
:104D30005754401C491C5F5C0D2FF9D1706049B17C
:104D4000491E07D4505C303800FB045504EB840046
:104D50004400F5E72846BDE8FC870000DC000020A1
:104D6000436F6E74656E742D4C656E6774683A009F
:104D70000148FDF715BC0000EC0B0020012280214A
:104D80000148FDF7AEB80000000C0240002280216F
:104D90000148FDF7A6B80000000C0240012080F396
:104DA00010887047002080F31088704710B5806B22
:104DB0000021C187C186FDF7F1FB10BD38B504465F
:104DC0001248134B0068B0FBF3F04FF47A7358436A
:104DD00000906068B0F5827F0DD10B4600920022F2
:104DE0008021204600F02AF870B1606D40F020006C
:104DF0006065032038BD009830B1401E00902068E7
:104E00008068C0430006F6D5002038BD7000002041
:104E100000366E011CB507A00123006801906420D4
:104E200000900DF1050201A90348FDF7D1FC9DF8A2
:104E300005001CBDFFFF0000EC0B00202DE9F8432E
:104E40001E46914688460446089DFDF74FF8401BD4
:104E5000351AFDF74BF8074625480068C0F3CB30FC
:104E6000684338E0701C37D0FDF740F8C01BA842FB
:104E700003D215B1009860B32CE02068416821F09E
:104E8000E00141606068B0F5827F0BD1A068B0F5A9
:104E9000004F02D0B0F5806F04D12068016821F086
:104EA00040010160A06AB0F5005F09D12068016887
:104EB00021F4005101602068016841F40051016053
:104EC000012084F85100002084F850000320BDE840
:104ED000F8830025401E00902068816838EA0100B0
:104EE00004D000214945BDD10020F0E70121F9E7B8
:104EF0007000002001B582B064200090012301AA57
:104F000002A90248FDF764FC0EBD0000EC0B002076
:104F100070B5194E0546304600F0C4F8024672B628
:104F200000F0B4F812BB154C206820F440702060EB
:104F3000206840F400702060206820F0F8002060B5
:104F4000206840EAC5002060206840F00200206030
:104F5000206840F480302060304600F0A3F802461C
:104F6000012803D0206820F00200206000F072F8D1
:104F700062B6104670BD0000400D0300103C0240B8
:104F80001C49884201D2002070471B49884201D247
:104F9000012070471949884201D202207047184900
:104FA000884201D2032070471649884201D204206A
:104FB00070471549884201D205207047134988423D
:104FC00001D2062070471249884201D2072070475B
:104FD0001049884201D2082070470F49884201D207
:104FE000092070470D49884201D20A2070470B20E2
:104FF00070470000004000080080000800C0000862
:105000000000010800000208000004080000060873
:105010000000080800000A0800000C0800000E0844
:105020000B480068C10301D501207047C10601D5B6
:1050300002207047810601D503207047410601D543
:1050400004207047000601D50520704700207047F6
:105050000C3C02400248016841F000410160704789
:10506000103C024030B50024B0F1006F01D383073B
:1050700008D0002030BD20C8641C41F823505B1CC0
:10508000A4B29BB29342F6D3204630BD03480249F6
:10509000016003490160704723016745043C0240F9
:1050A000AB89EFCD30B5040000D10124FFF7B8FF84
:1050B0000546012803D1FCF792FA641EF6D1284672
:1050C00030BD00002DE9F043002688460446B0F1CB
:1050D000006F01D3A00702D00420BDE8F083DFF801
:1050E0007890D9F8001021F48061C9F800101B48AD
:1050F000254604EB820784420CD30DE02868401C4F
:1051000007D02846FFF73CFFFFF702FF060001D05B
:1051100019E02D1DBD42F1D34FF47A70FCF75FFA10
:1051200072B6FFF7B3FF09E02046D8F8001000F090
:1051300017F8060004D108F10408241DBC42F3D37B
:10514000FFF788FF62B6D9F8001041F48061C9F812
:1051500000103046C1E70000003C02400000FF1F85
:1051600070B506460D46C820FFF79CFF002816D1F3
:105170000B4C206820F440702060206840F40070E0
:105180002060206840F0010020603560C820FFF7F3
:1051900089FF012803D0216821F00101216070BD41
:1051A000103C02407047704710B5FCF7A5FE07F0B1
:1051B000C3F9012803D0BDE8104007F04FB910BD76
:1051C00030B593B030216846FBF7ACF814210CA839
:1051D000FBF7A8F81D480025016841F080510160E7
:1051E000006800F0805011901948016841F4804136
:1051F00001600068022400F48040119001200390B7
:1052000010200490009406940820CDE90750A820AF
:10521000CDE9090404200B906846FDF709F808B1B0
:1052200072B6FEE70CA90F2081E831004FF4A050C0
:105230000F904FF48050109005210CA8FCF70CFF44
:10524000002801D072B6FEE713B030BD40380240EE
:10525000007000400248016841F47001016070472D
:1052600088ED00E00148FDF710BD0000440C00206F
:105270000148FDF70ABD00008C0C0020F0B5026863
:10528000254C264D264E274F274B4FF0804CA042F1
:1052900009D0604507D0A84205D0B04203D0B8423B
:1052A00001D0984204D122F0700E4A6842EA0E0200
:1052B000A0421BD0604519D0A84217D0B04215D0EB
:1052C000B84213D0984211D0184DA8420ED0184DB4
:1052D000A8420BD0174DA84208D0174DA84205D0C0
:1052E000164DA84202D0164DA84203D122F44075B3
:1052F000CA682A434D6922F080022A4302608A6804
:10530000C2620A688262A04201D0984201D1096952
:10531000016301214161F0BD000001400004004033
:1053200000080040000C0040000401400040014023
:10533000004401400048014000180040001C0040AB
:105340000020004010B5846842EA032224F47F4420
:105350000A432243826010BD826822F070020A4331
:1053600042F007018160704710B5036A046A24F0B7
:1053700001040462846924F0F00444EA021423F076
:105380000A020A438461026210BD10B5036A23F069
:10539000100303628369046A23F4704343EA023210
:1053A00024F0A00343EA01118261016210BD0000F4
:1053B000F0B58BB00446032226A1FBF741F8002884
:1053C00046D125A12046FBF719F801466846FAF7B1
:1053D000FDFF21A10020FBF711F8014605A8FAF70F
:1053E000F5FF1EA16846FBF709F81CA10020FBF79A
:1053F00005F81BA1FBF702F80446FBF73AF807464D
:1054000017A12046FAF7FAFF0446FBF732F80646E2
:1054100013A12046FAF7F2FF0446FBF72AF80546E7
:105420000FA12046FAF7EAFFFBF723F804460BA189
:1054300005A8FAF7E3FF09A10020FAF7DFFFFBF761
:1054400018F80849C2B20F704E708D70CC704A6067
:105450000BB0F0BD534950003B0000003A00000083
:105460002E00000094A50020074908480A78027021
:105470004A7842708A788270C978C17002491C39B2
:10548000096A416001207047D801002094A50020DE
:1054900008B50E48FDF7FCFC0C4800680168C1F334
:1054A0000011002910D0016841680091016840682E
:1054B0000648FDF7B3FC064800684068C0F5007177
:1054C000044841810121C17008BD0000D40C0020B6
:1054D000E40D00205800002010B5806B0021C1852C
:1054E000C184FDF7D3FC10BD70B5846B20684069A2
:1054F00094F83D10C0F3C0100025212904D118B143
:10550000E584204600F08AF82068406994F83E104F
:10551000C0F38010222904D118B1E585204600F09F
:1055200056F8206C40F0100020642046FDF7AEFCD9
:1055300070BD10B50146806B09680968C9052FD494
:105540000021C18501680C3151E8002F22F48072DE
:1055500041E80023002BF5D10168143151E8002FF8
:1055600022F0010241E80023002BF5D1016814313B
:1055700051E8002F22F0400241E80023002BF5D132
:10558000202180F83E10016B012909D101680C31FE
:1055900051E8002F22F0100241E80023002BF5D142
:1055A000016B012902D0FDF7BBFF10BD818DFDF716
:1055B00034FC10BD10B5806B016B012902D0FDF7E2
:1055C000DBFF10BD818D4908FDF727FC10BD016888
:1055D0000C3151E8002F22F4907241E80023002B97
:1055E000F5D10168143151E8002F22F0010241E8A1
:1055F0000023002BF5D1016B012909D101680C3181
:1056000051E8002F22F0100241E80023002BF5D1D1
:10561000202180F83E1000210163704701680C31A1
:1056200051E8002F22F0C00241E80023002BF5D101
:10563000202180F83D10704708B590F83E102229CF
:1056400001D0022008BD82684FF480539A4201D1F4
:10565000016921B1816A9A421BD04AB10AE002680D
:10566000816A5268C2F308020A80816A891C08E0D4
:10567000026972B10268526802F07F020A70816AA0
:10568000491C8162C18D491E0904090CC18503D0E2
:1056900019E002685268F1E70168CA6822F0200246
:1056A000CA600168CA6822F48072CA6001684A69E7
:1056B00022F001024A61202180F83E10016B01298D
:1056C00003D0FDF72DFF002008BD00210163016814
:1056D0000C3151E8002F22F0100241E80023002B8A
:1056E000F5D101680A68D20602D50A6849680091B6
:1056F000818DFDF792FBE6E770B50446006801690D
:10570000E26821F44051114301612169A068E26916
:1057100008436169114308432168CA6849F20C6370
:105720009A430243CA6020684169A26921F440712A
:105730001143416131492068884202D03049884292
:1057400002D1FCF733FD01E0FCF720FDE269002304
:10575000192164253226B2F5004F626828D0A0FBDB
:105760000101930F9200FAF78DFD0146B0FBF5F0B1
:105770006FF01802504301EB800006EB0010B0FB05
:10578000F5F000F0F002B1FBF5F002EB0012B1FB16
:10579000F5F06FF01803584301EB800006EB0010A2
:1057A000B0FBF5F000F00F0021681044886070BD78
:1057B000A0FB010192185B41FAF764FD0146B0FBC2
:1057C000F5F00201B1FBF5F06FF01803584301EB5F
:1057D000800006EBC000B0FBF5F000F0F80002EB33
:1057E0004002B1FBF5F0584301EB800006EBC0002E
:1057F000B0FBF5F000F00700D6E700000010014014
:105800000014014038B581628285002513460446A4
:105810000564222084F83E00A26B1C48D063A26B72
:105820001B481064A26B1B48D064A06B0A46056538
:105830002168A06B091DFCF70DFA2068016840681B
:10584000009084F83C50206948B120680C3050E842
:10585000001F41F4807140E80012002AF5D1206851
:10586000143050E8001F41F0010140E80012002A06
:10587000F5D12068143050E8001F41F0400140E8A5
:105880000012002AF5D1002038BD00003355000871
:10589000B5550008E954000881628285C28500215F
:1058A0000164222280F83E2080F83C10016921B179
:1058B0000168CA6842F48072CA6001684A6942F0AD
:1058C00001024A610068C16841F02001C160002006
:1058D00070472DE9F041984617460E460446069D4E
:1058E00027E0681C25D02DB1FCF700FBA0EB0800D9
:1058F000A8421ED920680C3050E8001F21F4D07156
:1059000040E80012002AF5D12068143050E8001F4A
:1059100021F0010140E80012002AF5D1202084F88E
:105920003D0084F83E00002084F83C000320BDE8E0
:10593000F0812068006836EA000004D00020B842F8
:10594000CFD00020F3E70120F9E7000038B5104878
:10595000FDF79EFA0E4C20680068C0F3001529463A
:105960000CA000F07FFB002D11D020680168416879
:105970000091016840682046FDF750FA0848006829
:105980004068C0F50071074881800121017038BD71
:10599000180D002074656D703A25640D0A00000032
:1059A000440E00205800002008B50F48FDF770FA9B
:1059B0000D4800680168C1F3001181B101684168B8
:1059C0000091016840680848FDF728FA0748006818
:1059D0004068C0F500710648C18001214170BDE8F2
:1059E00008400148FDF79CBD5C0D0020040F00201D
:1059F0005800002038B51248FDF74AFA104C2068CC
:105A00000068C0F3001529460EA000F02BFB8DB1F5
:105A10002068016841680091016840682046FDF7F0
:105A2000FDF90C4800684068C0F500710A48018122
:105A300001218170BDE838400148FDF771BD0000CB
:105A4000A00D0020746D705F666C61673A25640D6F
:105A50000A000000C40F002058000020FEE70000EC
:105A600008484FF4165101604160816000210173C4
:105A700041738173C173017441748174C174017580
:105A800001207047ACAA002010B501221102154870
:105A9000FCF727FA144C012220212046FCF721FABA
:105AA000012291032046FCF71CFA11480F49026FAE
:105AB00041F83A2F426F4A60806F886000F026F804
:105AC0000C490D4805F0F0FD0C490D4805F0FEFDB0
:105AD0000C490D4805F00CFEFBF7AEF9BDE810408F
